:020000040000fa
:080000000001040000000000f3
:020000040000fa
:0400080028050000c7
:020000040000fa
:04000c003a050000b1
:020000040000fa
:040010004a0500009d
:020000040000fa
:0400140030050000b3
:020000040000fa
:04001800420500009d
:020000040000fa
:04001c004a05000091
:020000040000fa
:040020004a0500008d
:020000040000fa
:040024004a05000089
:020000040000fa
:040028004a05000085
:020000040000fa
:04002c004a05000081
:020000040000fa
:040030004a0500007d
:020000040000fa
:04003400fa040000ca
:020000040000fa
:040038004a05000075
:020000040000fa
:04003c004a05000071
:020000040000fa
:040040004a0500006d
:020000040000fa
:040044004a05000069
:020000040000fa
:040048004a05000065
:020000040000fa
:04004c004a05000061
:020000040000fa
:040050004a0500005d
:020000040000fa
:040054004a05000059
:020000040000fa
:040058004a05000055
:020000040000fa
:04005c004a05000051
:020000040000fa
:040060004a0500004d
:020000040000fa
:040064004a05000049
:020000040000fa
:040068004a05000045
:020000040000fa
:04006c003a02000054
:020000040000fa
:040070004a0500003d
:020000040000fa
:04007400c0040000c4
:020000040000fa
:040078004a05000035
:020000040000fa
:04007c004a05000031
:020000040000fa
:040080004a0500002d
:020000040000fa
:040084004a05000029
:020000040000fa
:040088004a05000025
:020000040000fa
:04008c004a05000021
:020000040000fa
:040090004a0500001d
:020000040000fa
:040094004a05000019
:020000040000fa
:040098004a05000015
:020000040000fa
:04009c004a05000011
:020000040000fa
:0400a0004a0500000d
:020000040000fa
:0400a4004a05000009
:020000040000fa
:0400a8004a05000005
:020000040000fa
:0400ac004a05000001
:020000040000fa
:0400b0004a050000fd
:020000040000fa
:0400b4004a050000f9
:020000040000fa
:0400b8004a050000f5
:020000040000fa
:0400bc004a050000f1
:020000040000fa
:0400c0004a050000ed
:020000040000fa
:0400c4004a050000e9
:020000040000fa
:0400c8004a050000e5
:020000040000fa
:0400cc004a050000e1
:020000040000fa
:0400d0004a050000dd
:020000040000fa
:0400d4004a050000d9
:020000040000fa
:0400d8004a050000d5
:020000040000fa
:0400dc004a050000d1
:020000040000fa
:0400e0004a050000cd
:020000040000fa
:0400e4004a050000c9
:020000040000fa
:0400e8004a050000c5
:020000040000fa
:0400ec004a050000c1
:020000040000fa
:0400f0004a050000bd
:020000040000fa
:0400f4004a050000b9
:020000040000fa
:0400f8004a050000b5
:020000040000fa
:0400fc001c020000e2
:020000040000fa
:040100004a050000ac
:020000040000fa
:040104004a050000a8
:020000040000fa
:040108004a050000a4
:020000040000fa
:04010c004a050000a0
:020000040000fa
:040110004a0500009c
:020000040000fa
:040114004a05000098
:020000040000fa
:040118004a05000094
:020000040000fa
:04011c004a05000090
:020000040000fa
:040120004a0500008c
:020000040000fa
:040124004a05000088
:020000040000fa
:040128004a05000084
:020000040000fa
:04012c004a05000080
:020000040000fa
:040130004a0500007c
:020000040000fa
:040134004a05000078
:020000040000fa
:040138004a05000074
:020000040000fa
:04013c004a05000070
:020000040000fa
:040140004a0500006c
:020000040000fa
:040144004a05000068
:020000040000fa
:040148004a05000064
:020000040000fa
:04014c004a05000060
:020000040000fa
:040150004a0500005c
:020000040000fa
:040154004a05000058
:020000040000fa
:040158004a05000054
:020000040000fa
:04015c004a05000050
:020000040000fa
:040160004a0500004c
:020000040000fa
:040164004a05000048
:020000040000fa
:040168004a05000044
:020000040000fa
:04016c004a05000040
:020000040000fa
:040170004a0500003c
:020000040000fa
:040174004a05000038
:020000040000fa
:040178004a05000034
:020000040000fa
:04017c004a05000030
:020000040000fa
:040180004a0500002c
:020000040000fa
:040184004a05000028
:020000040000fa
:040188004a05000024
:020000040000fa
:04018c004a05000020
:020000040000fa
:040190004a0500001c
:020000040000fa
:040194004a05000018
:020000040000fa
:040198004a05000014
:020000040000fa
:04019c004a05000010
:020000040000fa
:0401a0004a0500000c
:020000040000fa
:0401a4004a05000008
:020000040000fa
:0401a8004a05000004
:020000040000fa
:0401ac004a05000000
:020000040000fa
:0401b0004a050000fc
:020000040000fa
:0401b4004a050000f8
:020000040000fa
:0401b8004a050000f4
:020000040000fa
:0401bc004a050000f0
:020000040000fa
:0401c0004a050000ec
:020000040000fa
:0401c4004a050000e8
:020000040000fa
:0401c8004a050000e4
:020000040000fa
:0401cc004a050000e0
:020000040000fa
:0401d0004a050000dc
:020000040000fa
:0401d4004a050000d8
:020000040000fa
:0401d8004a050000d4
:020000040000fa
:0401dc004a050000d0
:020000040000fa
:0401e0004a050000cc
:020000040000fa
:0401e4004a050000c8
:020000040000fa
:0401e8004a050000c4
:020000040000fa
:0401ec004a050000c0
:020000040000fa
:0401f0004a050000bc
:020000040000fa
:0401f4004a050000b8
:020000040000fa
:0401f8004a050000b4
:020000040000fa
:0401fc004a050000b0
:020000040000fa
:100200002f0121000e7f24000e0188000000000055
:10021000000020000000e000020032000001200089
:100220002002880014000700550207000000e000cb
:1002300003003a0020442a00010020000200370099
:100240000000200001002000810f7000010032003a
:1002500014000700000020000000e000020032004f
:1002600000000200000000007ea802000000000064
:100270000040da000000fe004440a9008014210084
:100280000000e00003003200002020009001880000
:100290004440a800000006008a1f78008b1f7800e9
:1002a00000000600a1028800800478000000eb0036
:1002b0001f003700e284440054a0b4009905ba003e
:1002c000e284440054a0b4009906ba00e2844400d9
:1002d00054a0b4000006eb00476fde00fd07b2003b
:1002e000ae018800636ce10003003a00eaff0700fa
:1002f0000000eb000e003700606ce10008003a00df
:10030000004deb000a05e800020039003420ec0043
:100310000af0a0008b05e900f9ff3e000400370059
:100320006168e100010032000086eb000b0007006d
:1003300019c7ba001905ba000e04e00003003a001c
:100340000a00e000dbff3a0000000600fe07b200f2
:10035000ae0288008a047800f5ff37000cd0a300b5
:10036000e20f4d001c00390089027800354dba00bb
:100370000a05e800020039003420ec000af0a00071
:100380008b05e9000f003200254dba000a05e80090
:10039000020039003420ec000af0a0008b05e900cf
:1003a000080032000c00e0000600320015cdba0053
:1003b0000a05e800020039003420ec000af0a00031
:1003c0008b05e9008984e80054a0b4000b00e0002c
:1003d000e2ff3a00000006009902ba00055d7800cd
:1003e0008b05e900f7ff3200c82ade00055d7800c2
:1003f0008b05e900f3ff32000c00e000f1ff320052
:1004000019ddba00eeff3700789904000000000003
:1004100092960400000000004097040000000000d5
:10042000da0a0400000000007e0a04000000000058
:10043000d6060400000000003600f800809fbe00d1
:10044000829fbe00849fbe00869fbe000000fa000f
:10045000694607008ea0a9000080fa004f03be0085
:100460004f02be004f01be004f00be003600f90033
:10047000004006003600f800809fbe00829fbe004c
:10048000849fbe00869fbe000000fa008a20a9005b
:10049000f124800000082000008060000000e000df
:1004a000090032009ee4a9000828ef007040800097
:1004b00064004000100078008000eb000108780024
:1004c0000e28ef0027013700404080008000eb003d
:1004d000b200200003002000820f5000838f5800dc
:1004e00014013e00006001000b0037004700370098
:1004f00087003700b00037000b013700de003700ff
:10050000f100370008013700f30037000901370018
:100510004200370060003700008020006400400087
:1005200010007800620060000000e0000c013a005a
:10053000008020000080e8001000780070408800f3
:10054000008020000080e800100078001040780053
:100550000ae8b700008020000080e8001000780062
:100560000080e800100078006040880000802000d3
:100570000080e80010007800e600400000802000c5
:100580000080e80001087800008020000080e8007a
:100590009000780080fd2000808f500004003a0019
:1005a0000080200021fd20000080e8000108780084
:1005b00000802000e4004000910078000100a100cc
:1005c0006400400001087800008020000080e800fe
:1005d000900078000080200010007800808f50008c
:1005e00006003a0000802000e400400091007800fe
:1005f0000110a00064004000010878009a04a800df
:100600002000200040408800d60037009a24a8002f
:100610002000200040408800d2003700f1248000f4
:1006200000002800008060000000e0000a003200a6
:100630000080200066004000104078008040e80004
:100640000080200066004000014878004000200043
:10065000994d0700c3003700804080008000d10022
:10066000f00f200000806000b024880080408000ef
:1006700061006000004078000004e00003003200e8
:10068000b000200040408800b60037003000200055
:1006900040408800b3003700f124800000002800ab
:1006a000008060000000e0000a00320000802000ae
:1006b00066004000104078008040e8000080200084
:1006c0006600400001487800400020007a4d070095
:1006d000a40037009a24a800804080004800de0073
:1006e000e6006000000f20000100700080408800dc
:1006f000804080000000a0008040880010c0b3004f
:1007000012e8b70020002000404088009500370024
:1007100012c8bf00e14f50000c0032006040800062
:100720001000780080408800604080006400400035
:1007300010007800a0408800604080000080e80041
:100740001040780016e8b700010037001268ef008b
:1007500081408000f00f2000808f5000090036009b
:10076000804080004800de00e6006000000f2000ae
:1007700001007000b0248800a000200040408800e4
:100780007800370080408000b024880080408000de
:1007900061006000004078000004e00003003200c7
:1007a00050002000404088006e00370030002000dc
:1007b000404088006b003700f124800000002800d2
:1007c000008060000000e0000b003200008020008c
:1007d00066004000104078008040e8000080200063
:1007e00066004000014878009fe4a9005000200006
:1007f000314d07005b00370016c8bf008080fb004a
:100800008100e900cf08de00814078000040e90067
:1008100016e8b7000104e0001000320060408000dc
:1008200066004000604088000ac8bf000040e90040
:100830000ae8b7000ac8bf000004e00003003a005d
:10084000200020001c4d0700460037009a24a80015
:10085000200020004040880042003700a040800077
:10086000904078008180fb00b12488000000e800ff
:10087000a04088003b003700f124800000002800e1
:10088000008060000000e0000b00320000802000cb
:1008900066004000104078008040e80000802000a2
:1008a000660040000148780040002000024d07002b
:1008b0009fe4a9002b0037009a64a8008000200064
:1008c000404088002700370080002000404088001a
:1008d0009a64a80023003700a0408000a124800073
:1008e00081407800014878000000e800a0408800be
:1008f00016c8bf000040e90016e8b70016c8bf00e0
:100900000004e000040032009aa4a9006000200066
:1009100040408800020037009aa4a800d54c070088
:100920009a84a8000f00370020002000e24c070046
:100930000c00370000802000660040001040780066
:100940008040e800008020006600400001487800f8
:1009500060002000d84c07000000000001003700b4
:10096000000000000080fa004f03be004f02be00ee
:100970004f01be004f00be003600f90000400600e7
:100980003600f800809fbe00829fbe00849fbe009c
:10099000869fbe000000fa005004800068006000de
:1009a0000000e0000c0032008a60a9008133800062
:1009b00000002100008060000000e000060032001e
:1009c0007186a900a04280000000e0000200320011
:1009d000a0428000000001000080fa004f03be002a
:1009e0004f02be004f01be004f00be003600f900ae
:1009f000004006003600f800809fbe00829fbe00c7
:100a0000849fbe00869fbe000000fa00335107009d
:100a1000b0002100104078008040e800b0002100c4
:100a200001487800a000210011c0b30001487800ff
:100a30008860a9000080fa004f03be004f02be008c
:100a40004f01be004f00be003600f9000040060016
:100a50003600f8008020a9000000eb00e5510700f7
:100a60003600f800e75107008040a9001000200080
:100a7000e05107003600f8008060a9002000200047
:100a8000dc5107003600f8008080a900300020000b
:100a9000d85107000040da000000fe00ec87470054
:100aa0008e1f78006c87570044002000041f7800d8
:100ab000000f78006c87570002afbe00e1bf9f00b7
:100ac0006c8057007f1b07001e00be004f07780098
:100ad000cf00b100000006000800fa008e81e80097
:100ae000800978006400470001087800660047002c
:100af0000208780000000000d11c800000102000d7
:100b0000008060000000e000fbff3200660047004c
:100b1000100f78001300370000000000d11c800087
:100b200000102000008060000000e000fbff3200a9
:100b300064004700100078001040780058e8b700c3
:100b400064004700100078008000e800640047005f
:100b50000108780058c8bf000000fb00e01c8800b6
:100b60001e0fe9001e0078000000e000eaff3a00d6
:100b700066004700100078000080fa0000000600c0
:100b800000000500020007000400be00000006008f
:100b90006022b800060220000000d0008180d20050
:100ba0000482d2008582d2000000a000020252001e
:100bb00083825a00030031000202420083824a000d
:100bc0000000a1000603e900f3ff3a000000060060
:100bd0008001780002003700b15978000201e90075
:100be0000200e000fcff3a0000000600889fbe0003
:100bf0008a9fbe00800478000200e0005a003200a4
:100c000001407800814c780082814400f1f99f0016
:100c1000e20f51005400360091449800a14498001e
:100c2000e1f99f00d1f99f00e60f51004e00360018
:100c3000b1449800c1f99f00e80f51004a00360006
:100c40000905ea00630565000a8444000a055100ad
:100c5000c1ff2f00010565000080fb008000eb0054
:100c6000121020001310200098160700008cbe0000
:100c70000a01440060b99f0071b99f00e80f550058
:100c80003900360020049800310498004004980090
:100c90005104980020b99f0031b99f0040b99f00ce
:100ca00051b99f00f80f55002f00360060049800de
:100cb00071049800000c9800110c9800200c98000a
:100cc000310c9800400c9800510c980020b19f0006
:100cd00031b19f0040b19f0051b19f0060b19f00b2
:100ce00071b19f0000b99f0011b99f0064016400b9
:100cf0007801410002044400020555006011b8006b
:100d00000203be000002be000403be006022b80061
:100d10000000720081807200020173008381730001
:100d20000f00370008027800009abe00029abe0049
:100d3000009abe000292be00000c9800110c9800b0
:100d4000220c9800330c9800400c9800510c98002d
:100d5000620c9800730c98000a02b1000802b000ff
:100d6000ff0f5500efff3e00090078004f05be0061
:100d70004f04be0000000600f1788000910078006a
:100d80003e020700110020000000e00005003500d1
:100d9000f078800090007800a0002000b9020700e1
:100da000cf00de000100ea0000000600000006009f
:100db00040f2200000000600fdff070010798800c7
:100dc00000798800000006008000780004003700e9
:100dd0003104e00002003a0000005100000006006b
:100de000010178000108a300f9ff3a0081017800b1
:100df00031017800f4ef2f00020242000281ea0084
:100e0000020162000408280004016100f7ff3200bb
:100e100083007800010178003104e000fdff3a0012
:100e20000000510000000600114290000482fb0007
:100e30009180fb00c808dd0004827000800078000b
:100e4000d181fb001081fb004811dd00030171001e
:100e5000030037004811dd001180fb000201700023
:100e6000010078003104e00004003200840f5100da
:100e7000f8ff3a000000e90000000600000005004d
:100e8000114390008683fb00060020001181fb00c7
:100e90008001eb00c811dd00020020000203730096
:100ea00083837300214190004811dd008001eb0035
:100eb00002037300838373008080e8001041900078
:100ec0008281fb00020020001082fb008002eb0008
:100ed000c822dd000400200004017100858171003a
:100ee0001182fb004822dd008002eb00040171004a
:100ef00085817100080037001182fb008002eb0041
:100f000004027100858271004829dd00c821de00dd
:100f1000830171004821dd00010078003104e00008
:100f200005003200860f5100878f5900f2ff3a000a
:100f30000080e9000000060000000500889fbe0058
:100f4000314290000482fb008002eb000101780036
:100f50003283fb008003eb00c833dd000600200075
:100f600006037200878372001281fb008001eb0090
:100f7000c011dd00020020000203730083837300b0
:100f8000214190004811dd008001eb000203730055
:100f900083837300e30040001182fb008002eb00ba
:100fa000800178003384fb008004eb00c844dd003e
:100fb0000800200008047200898472001381fb007d
:100fc0008001eb00c012dd00040020000401740069
:100fd00085817400204290004822dd008002eb00f1
:100fe00006003700481add00c812de0085027200d4
:100ff0004812dd001181fb008001eb00020172004c
:1010000083817200010078003104e00005003200a5
:10101000860f5100878f5900f2ff3a00630050009d
:10102000010037000000eb004f04be000000060086
:101030008f22b000889fbe008a9fbe008c9fbe009a
:101040008e1f78000004780081057800c0dc2f0036
:101050000f0040000f0009000018eb000002b10073
:101060000b017800880078008004eb001000370046
:101070000080fb00c401de0083814100c4dc2f003e
:101080000f024200830142006f0260001500200041
:10109000042add00930972008584440000004000aa
:1010a000c7dc2f008f8343000080430009109800a5
:1010b000324078000004e00005003a001a002000e9
:1010c0000a0078000001eb008081eb001900370076
:1010d0003104e000e6ff3a00a20037000382450039
:1010e000e44278006bc2780084cf520005003a00d9
:1010f0008a0f50000c0032000000e80082007800e7
:101100000b00370084cf52000200360003855000e8
:10111000060037008200e800820178001a002000f3
:101120000a00780002003700000578001000200057
:101130000101780082004000898f5000e7ff3900ec
:1011400011002000010078000002eb008086eb0017
:10115000160037008d82450065437800eb42790028
:10116000854f530005003a00810f50000c003200fb
:101170000000e800040178000b003700854f5300a1
:10118000020031008d005100060037000401e80024
:10119000840678001100200001007800020037006a
:1011a0008000780010002000020278000401400056
:1011b000890f5100e7ff39000d01e8000300e80046
:1011c000800f510002003600010578000100370051
:1011d000830678000d02e8008a804500040178004b
:1011e0000b00780084bf9f00800107000fba9700b2
:1011f0000000e000080032000905e9000d05550077
:101200008d0f5500010031000d0578000a05e8003a
:101210008001eb00010037008a8154000807780044
:101220000006eb0008005700890f50001400310041
:1012300089027800f503b300050178008000eb0017
:101240000e007800e3b79f0084bf9f00f5b79f00b2
:1012500036010700efb197000fba9700ffb2970071
:101260000000e0000500320088005000898f500027
:101270003c003900000778000100370005074700ef
:101280008900440071f897000080fb006f01600046
:10129000160020000233dd004401de00020141009f
:1012a000c7dc2f008f834300e7027900050163004c
:1012b0000d0032000000400000804300001090004c
:1012c000008054000a0032000300e00015003200e4
:1012d0000c00e000130032008a0f500011003100b2
:1012e0000a8054000f00370001047800ccff37005b
:1012f0000c007800840f56000300310004007800d1
:10130000010037000000e800eb4078000104e00035
:10131000060032006841780082cf5000f9ff3200a9
:101320000d00500000044400bdff37000d007800a0
:101330008000e8008c8f5000080036006b41780078
:10134000e84078000000e900814f5100f8ff3200ca
:101350000a04440003067800b2ff37000800780052
:10136000010037000000eb004f0778004f06be0079
:101370004f05be004f04be00ef1fb100af02b10029
:1013800000000600881f780001047800984078006b
:101390000104e000260032008100fb001b1307005f
:1013a0000000e00022003200984090000104e000bc
:1013b0001f003200904090000104e0001b0032004a
:1013c000a84090000104e00003003a008800780083
:1013d00095fe070016003700a04090000104e000d1
:1013e00012003200b84090000104e00003003a000f
:1013f00088007800a2fe07000d003700b040900082
:101400000104e00009003200c84090000104e0003f
:1014100003003a0088007800c8fe07000400370087
:101420008800780002ff0700010037000000eb0091
:101430004f04780000000600889fbe000004be0034
:101440000800e00003003a00688080000800e00027
:10145000130032000800be004401070000044400ed
:101460001804e00004003a000000eb0060808800ef
:10147000000478000a0037000800be0002010700df
:1014800000004400608088001004e0000200320088
:101490000058eb00010037000000eb00608088007e
:1014a000080078004f04be0000000600889fbe00c0
:1014b0008a1f7800800478004900900002047800b8
:1014c000800f540001003600000478000801780005
:1014d0006a8544001a007800bdfd07001a00440028
:1014e000000d7800e8844400990c14000048eb00db
:1014f0004f0578004f04be00000006001000780081
:1015000075fd3700900190000388a30001003200b0
:10151000e6ff37000348a30001003a00f7ff070089
:1015200000000600889fbe008a1f78000004780033
:10153000010578000000eb000800e0001a0032000e
:10154000180090000058a3000c003200ea04440088
:1015500068009000990f100008003600b80990004c
:101560000001eb0082007800080078000300010011
:101570000080eb001900e0000b0032007400440012
:101580000008eb006c0044000008eb006a00440017
:101590000008eb000000eb000a00e000020032004f
:1015a000180078005a3407004f0578004f04be0039
:1015b00000000600889fbe008a1f78000004be005d
:1015c0000000eb000800e000290032001800900045
:1015d0000058a300120032006a0544006800900021
:1015e0009a0f100008003600b80990000001eb00c7
:1015f0008200780008007800030001000080eb0002
:101600001a00e0001a003200740044000008eb00e9
:101610006c0044000008eb006a0044000008eb0086
:10162000780a900008109000800f520006003100e8
:101630000002520011002000cfa2de00612bb90091
:101640001800780015fd0700000220000800400087
:101650000008eb007e0044000008eb000000eb00f7
:101660000900e0000200320018007800283407006a
:101670004f0578004f04be0000000600889fbe00a2
:101680008a1f78008004780001057800090078003e
:10169000cdfd0700000478008a0178000801780079
:1016a00011002000090078000a000700800078007f
:1016b0000080eb00888f500001003a000000eb0032
:1016c0004f0578004f04be000000060010007800af
:1016d00001fd3700889fbe008a9fbe00810478000c
:1016e0000204780009c5b9000900e00001003a00d1
:1016f0000004eb000a017800800078000300780005
:101700007eff0700800078008a8f500003003200bf
:10171000110009008980d8000004780008007800d2
:101720004f05be004f04be00000006008180fb0094
:10173000010037000201e900800178000008a300e1
:10174000060032000200e000230032003082fb007d
:10175000810f5200f7ff3a00030037000000eb0052
:101760000200e0001e0032001380fb00810f5000d9
:101770001c00320014102000048ab9008402780092
:10178000010037000281e90003007800e10f5100f9
:101790000a00360033826a00f6ef2f00040343008c
:1017a0000482ea00040263000608280006026200c0
:1017b000f4ff3200010037000201e90080017800e7
:1017c0000200e000050032003082fb00810f520071
:1017d000f9ff3a0003003700000005000000eb00ad
:1017e000000006000300780000000600010037003a
:1017f0000201e9000200e0000500320030427800fa
:10180000b1417800834f5200f9ff320001003700e8
:10181000000005000480fb008381fb0003005000f2
:10182000000006000200fa000001780001007800c4
:10183000e2ff9f00900090000188a30006003200a4
:10184000ea01400093007800825878000280fb0093
:101850008109780009003700120020008f80e9001c
:1018600026ff0700800078000080eb000100e00008
:1018700002003200eff897000180fb000080fa00c0
:1018800000000600e7ff37002000fa00889fbe0036
:101890000004be00994078000104e000030032001b
:1018a000194090000004e00004003a008100fb00b1
:1018b00008007800650007002800370002022000b9
:1018c0008000eb00c0fd2f000f004000c7fc0700a8
:1018d000194078000004e00002003a008800780017
:1018e0000e0037008904e8000080fb00c400de0021
:1018f0006f006000120020000010dd0081804000b9
:10190000c2fd2f000f014100810041001100700055
:1019100080087800eeff3a00f0ff37000100780001
:10192000114178000204e0000c0032008100e80060
:101930000281fb00ef016100140020000322dd00a2
:101940004411de0002014100c5fd2f008f824200dc
:10195000e501790003016200f0ff32000800500049
:101960004f04be000080fa00000006002000fa00cc
:101970000f0178000202b1000f0009000019eb000e
:10198000914178000001eb000304e0002c003200dc
:10199000114190000204e00005003a008000780048
:1019a00001017800b1cf1100fdff320023003700a4
:1019b000114178000204e00002003a008000780043
:1019c0000e0037008100e8000281fb00c411de0038
:1019d0006f016100140020000221dd0083814100bd
:1019e00004fe2f000f024200830142001301710028
:1019f00082097800eeff3a00f0ff3700010178001d
:101a0000914178000304e0000c0032008100e800fe
:101a10008381fb006f82610015002000842add00b5
:101a2000c419de008381410006fe2f000f0343002e
:101a30006682790084816200f0ff3a000001510063
:101a4000020078000080fa0000000600881f78007d
:101a5000000478008180fb000a003a00080078004a
:101a6000d9fc070000004400220037001804e00001
:101a7000200032000804e8001081fb00810f5100b3
:101a80001c003200080078000808a300f7ff3a00a5
:101a900014102000048ab90008017800380078008a
:101aa000f5ef2f00808242008081ea00838262008d
:101ab000030828008382620007003a0000006a00e1
:101ac000f5ef2f00808242000080ea000080620073
:101ad00083016000f0ff3200020078001204e00091
:101ae000040032000201e8009081fb00818f510068
:101af000f9ff3a004f047800000006000000fa00e9
:101b0000cfb8970068815700f07880001000780007
:101b1000830407000080fa000000060005000700ab
:101b20005e000700ff02070033030700ae03070053
:101b3000d6033700ec874700889fbe008a9fbe000f
:101b40008c9fbe008e1f780000067800010478008c
:101b5000180790002805900098067800cdb79f00e0
:101b6000b80590003202be002203be000400be0091
:101b70000601be004f18de006011b8008000eb00c7
:101b8000d0b79f00e1b79f00f2b79f0083bf9f00cf
:101b9000800478000900e000060032006000b80010
:101ba0006011b800040250008582580006035900f5
:101bb000878359000e00e000020035000d10a100df
:101bc000cdb79f000900e00005003a004fb0970034
:101bd0000028a30002003a000038a30002003200ef
:101be0008a00e900010037008a007800f881570078
:101bf000a200200008007800290307000900e00087
:101c000003003a00cfb097000128a300080032007b
:101c10000000e90000814500b1c2b3000900e00006
:101c200001003200d1c2b30001497800050037003d
:101c30000138a300030032000000e90001c2b30034
:101c400081757800480190000201e900000151000f
:101c5000808045004fb297008a0178000c00780020
:101c6000510407009c0090000188a300040032008a
:101c700098009000810f500001003d0001007800a5
:101c80004f0778004f06be004f05be004f04be0050
:101c9000cf00b10000000600000006008f04b00075
:101ca000889fbe008a9fbe008c9fbe008e1f78005a
:101cb000809f9f00f19f9f00c3779f0001007800e5
:101cc000b0007800e1a79f0010007800d0b79f0017
:101cd000ff999700a3019000d3a79f007f9a9700d8
:101ce00044029000f4979f00ff9a9700b506900079
:101cf0003204be002205be006022b8006033b80086
:101d00000800be000a01be00bf1107000000e0008d
:101d100003003d000bf0a200d0c2b3000400370066
:101d20006fa397000628a30008003200b0c2b300da
:101d3000804e7800dfa397008703e900c7af9f00bc
:101d400010002000f0a79f000f003700efa09700c1
:101d50000138a3000800320000c2b300804e7800b2
:101d60005fa197000201e900c2af9f0013002000ad
:101d7000f3a79f00040037005fa29700c4af9f0045
:101d80008002eb00f5a79f000800be000a01be001c
:101d9000c1ff0700f4ff2f00f5ff2f00f6ff2f0013
:101da000f7ff2700040260008582600006036100df
:101db000878361006000b8000200200003ff270055
:101dc0000020e10001a8e10002b0e10003b8e10059
:101dd00010003a004f7397008600fb001104b10019
:101de000ffa3970007804600f98f500002003e00d5
:101df00041fe20000100370081fe200097100700ff
:101e000080fe2000f0fb0700ffa0970001014000ca
:101e1000140037000020e10001a8e10002b0e10059
:101e200003b8e100120036004f7197008200fb00fa
:101e30001104b100ffa1970003804600f98f500004
:101e400002003e00c1fe20000100370001ff20001b
:101e50008210070000ff2000dbfb07007fa2970035
:101e6000040140006fa29700dfa19700190237001c
:101e70006022b8006033b8000800be000a01be004e
:101e8000611107000000e000680032006000b80047
:101e90000200200003ff230080af9f0091af9f004e
:101ea000a2af9f00b3af9f000007eb000802be0087
:101eb0000a03be00d4af9f00e5af9f00f6af9f00be
:101ec00087b79f00070037000e07e8000800be0034
:101ed0000a01be0080af9f0091af9f00a2af9f009c
:101ee000b3af9f006022b800060020004702240024
:101ef0000fa897009fa897002fa99700bfa9970048
:101f0000f81207000004be000205be000002be0079
:101f10000203be005fa89700efa897007fa9970073
:101f20008fb19700381107000000e000e6ff3d0088
:101f30000006eb000fac97009fac97002fad970009
:101f4000bfad97002500370040ed2f00800f5700f0
:101f500019003d000c00e00016003a006022b800b5
:101f600006002000073524005fa89700efa897001f
:101f70007fa997008fb19700da1207000002be0018
:101f80000203be00d4af9f00e5af9f00f6af9f00f5
:101f900087b79f006022b8000600200007352400a4
:101fa0000800be000a01be00ce1207000004be00f9
:101fb0000205be001c0020006022b80006002000c0
:101fc000470224000800be000a01be0016120700e6
:101fd0000004be000205be000e07e9000802be00b4
:101fe0000a03be005fa89700efa897007fa997009b
:101ff0008fb19700041107000000e000d2ff350008
:102000000800be000a01be0080af9f0091af9f0094
:10201000a2af9f00b3af9f005fac9700efac9700fb
:102020007fad97008fb59700080037006022b80099
:102030000600200007ff230084af9f0095af9f009c
:10204000a6af9f00b7af9f000007eb00cf729700cd
:102050000500fb0008100700d0779f005fb39700d2
:10206000600020000600e000010035005fb097002e
:1020700071c6b300df73970081cf53000a003a00a6
:10208000dfb097000100e0009b0132009b013700a8
:102090008e0f50009f013c00d0af9f0052c6b3008e
:1020a00082cf9f001e003700df71970083cf9f0013
:1020b0000200370064c6b30084cf9f000000e80030
:1020c000d0af9f0060c6b3008fca970080cf520088
:1020d00013003a000e00e00008003d006000b80068
:1020e0000200200003ff230080af9f0091af9f00fc
:1020f000a2af9f00b3af9f000007eb0061c6b30023
:1021000081cf9f0070c6b3005f719700804f510070
:1021100003003200dfa997008e814100d3af9f00fa
:102120000faa97009faa97002fab9700bfab97000d
:1021300094b79f00a5b79f00b6b79f00c7b79f0091
:102140000800be000a01be00d0b79f00e1b79f00a3
:10215000f2b79f0083bf9f000006eb000802be009d
:102160000a03be00b49f9f00c59f9f00d69f9f009b
:10217000e79f9f00310037001fb29700afb2970072
:102180003fb39700cfb397005fb09700efb09700d1
:102190007fb197008fb99700a3110700461707007a
:1021a0000004be000205be00d410070080027800c3
:1021b00085a79f001fb29700afb297003fb397006b
:1021c000cfb397000800be000a01be004512070009
:1021d0005fb29700efb297007fb397008fbb970075
:1021e000401107000002be000203be0007f0a2007b
:1021f000d4b79f00e5b79f00f6b79f0087bf9f0049
:102200006022b80006002000470224001fb097009b
:10221000afb097003fb19700cfb197008211070090
:102220000002be000203be0094b79f00a5b79f0046
:10223000b6b79f00c7b79f000c06e800dfaa97005b
:10224000850f5600ccff35003f9c9700cf9c970030
:102250005f9d9700ef9d97006022b8000600200068
:10226000470124001fb09700afb097003fb197001f
:10227000cfb197001b1207000002be000203be0090
:1022800094b79f00a5b79f00b6b79f00c7b79f0040
:102290005fb09700efb097007fb197008fb99700bc
:1022a000591007000000e0000f0035001fb2970032
:1022b000afb297003fb39700cfb397005fb09700de
:1022c000efb097007fb197008fb997004e100700cd
:1022d0000000e00011003a008fa297000508a3005b
:1022e000080032000d0037006000b8006011b8002f
:1022f00090b79f00a1b79f00b2b79f00c3b79f00e0
:10230000060037006022b8006033b80094b79f0021
:10231000a5b79f00b6b79f00c7b79f001fb2970031
:10232000afb297003fb39700cfb397000800be004d
:102330000a01be00f11007000002be000203be0049
:1023400084a79f0095a79f00a6a79f00b7a79f00ff
:1023500050c6b3008fca970080cf520003003a00e6
:102360000003eb00d6b79f0001003700deb79f00e7
:102370007fa697000000eb0090b79f00909f9f0002
:10238000b09f9f008e007800e1979f0066003700a5
:102390000faa97009faa97002fab9700bfab97009b
:1023a0000fa097009fa097002fa19700bfa19700b3
:1023b0001d110700c01607000004be000205be0084
:1023c0004e10070000017800efa197000348a3001a
:1023d0000c003a000200e0000a003a0070c6b300a8
:1023e0005f729700804f520006003a00dfb29700fc
:1023f0000500e00003003d001fb397000607e8005a
:10240000200037009f9b97000700e0000b003a0078
:102410005fb097000000e00008003d00e0c2b3009c
:1024200080767e000c06e800cfa897008100e900c6
:10243000c1af9f0013002000939f9f008c80460037
:102440001fb797000300370000c3b300805878001f
:102450000e07e9000e00e000fbff3a001fb29700f4
:10246000040646000c80460005c3b3000548410041
:102470000c06e8000480ea004fab9700000343001d
:10248000c6af9f000faa97009faa97002fab970097
:10249000bfab97000800be000a01be009111070003
:1024a0000fa297009fa297002fa39700bfa39700aa
:1024b0008c1007000002be000203be0007f0a2005d
:1024c00084a79f0095a79f00a6a79f00b7a79f007e
:1024d0006022b80006002000470224000fa89700e1
:1024e0009fa897002fa99700bfa99700ce100700bb
:1024f0000002be000203be0084af9f0095af9f00a4
:10250000a6af9f00b7af9f00dfb297008502e9003a
:10251000d5b79f003f9b97000603e800b69f9f003a
:102520008e03780097b79f003f989700dfa8970029
:10253000810f500005003d007f99970042009000f8
:1025400065005000800f560091ff39006f9797008b
:102550009f9997000300e00006003a006fa29700e1
:102560000448a30003003200e0c2b30080767e007e
:102570000c06e8000c8046000048eb0051c6b30092
:102580008fca970081cf520036003a007f939700a0
:102590008600e900018146000049eb008001eb0064
:1025a0000e00e00002003d000e07ea0013002000cc
:1025b0002200200081037800cfaa97000004780051
:1025c0000b00370081037800a400200011000900ef
:1025d0000407d8000102780000077800078346004e
:1025e00000c3b300004b42000201e9008502e9008c
:1025f0008700e9000e00e000f2ff3a000200e00070
:10260000f0ff3c00c5af9f00080078000182460043
:10261000b2c2b3000300e00001003200d2c2b30036
:10262000024a78000101e90082804600cf719700dc
:102630000302fb001404b10053c6b300f90f5200ab
:1026400001003e0053c4b300834878004faa9700ae
:102650000482e900c4af9f00820f560001003100e0
:102660007e0e0700efa2970063806200e20f500029
:1026700013003a004fab97000600e0001000340052
:102680000d007800d0f9070004003700cfab9700a9
:1026900087804600ed7078000000e900ffa19700f8
:1026a000830f5000f9ff3100038046004fa99700c7
:1026b000010320004df907000002eb00d4a79f00a2
:1026c0000d007800c0f907006fa29700dfa1970006
:1026d000000178008d0078000f989700b201070084
:1026e0004f0778004f06be004f05be004f04be00e6
:1026f0008f04b1000000060010002000e40f470026
:1027000063fe3d00d0af9f0055c6b30085cf9f004c
:1027100083fe37000e00e00066fe3500d0af9f005c
:1027200076fe37000200fa00889fbe008a9fbe0036
:10273000000578000104780002007800180190007c
:10274000a805900098007800b1bf9f00b8049000e1
:102750000200e000020035000110a100b1bf9f009f
:10276000ea815700820020008b0078003002be0012
:102770002003be0008007800490007003fb9970019
:10278000f0006100030032000000e90001c3b30063
:10279000817478003fb99700e800610003003200bf
:1027a0000000e90001c2b300817478004801900084
:1027b0000201e90000015100808044003fba970007
:1027c0008b0178000a007800770107009a009000da
:1027d0000188a3000400320098009000810f50008f
:1027e00001003d00010078004f05be004f04be000f
:1027f0000080fa0000000600ea874700889fbe00bc
:102800008a9fbe008e1f78000004780003007800c5
:102810007287570084e2260055c72600049fbe0039
:10282000c3962200030f78006c875700004feb001f
:1028300011059000a1049000910578000200e000cd
:10284000020032000207780001003700728757004b
:102850000000e00002003a000e0078005af907007c
:102860000a00e000030035008a0f50000100360026
:102870000a0078000b0278008901780000017800d6
:102880008e00780008007800470107004f077800a5
:102890004f05be004f04be00af00b10000000600af
:1028a000f4874700889fbe008a9fbe008c9fbe00b1
:1028b0008e1f78000605be000404be0081bf9f0085
:1028c00082b79f00f3b79f00b0009000e1b79f0070
:1028d0001301780092b79f00900690004006900088
:1028e0000c06e9000d00e00001003d001d00200085
:1028f000efb197000c8041000048eb001e00200063
:102900001f0037000c06e9000fb09700cf80de00f3
:102910006109b900a0b79f00b1b79f00c2b79f007f
:10292000d3b79f000203be000002be000800be0035
:102930000a01be008e14070000077800efb0970070
:102940000c80400003c3b300034847008d06e90034
:102950000fb897000000e90080bf9f002fb29700da
:10296000bfb297004fb39700dfb397000800be00d7
:102970000a01be00771407000205be000004be0075
:102980000c00e0000d003200e00f5400e08f5c000e
:10299000e00f5d00e08f5d00daff3a000d00e0001f
:1029a000d8ff3c008fb897000100e000030034001e
:1029b0001fb197000218a300d2ff3a000e00e000fa
:1029c00002003a00ffb197001340a1000c0078000c
:1029d0004f0778004f06be004f05be004f04be00f3
:1029e0004f01b100000006000200fa00889fbe00ff
:1029f0008a9fbe00800478000104780002007800fd
:102a0000180190002805900098007800b1bf9f0041
:102a1000b80590000200e000020035000110a1009e
:102a2000b1bf9f00ea815700a20020008a00780011
:102a30003002be002003be000800780098ff0700a7
:102a4000480190000201e90000015100808045002a
:102a50003fba97008a01780009007800d200070089
:102a6000990090000188a3000400320098009000b3
:102a7000810f500001003d00010078004f05be00ad
:102a80004f04be000080fa0000000600fa874700ed
:102a9000889fbe008a9fbe008c9fbe008e1f78005c
:102aa0008004780001047800820578001801900005
:102ab0002805900018077800b80090000200e00098
:102ac000020035000e10a1000100370012002000a6
:102ad00070006700e0b79f00090032003b02be00b3
:102ae0002b03be00e00f5200e08f5a00e00f5b00a6
:102af000e08f5b00020032008a86e90001003700a7
:102b00008a067800e8026700f5b79f0001003200ee
:102b10008d06e9003b02be002b03be00e4af9f0020
:102b2000f5af9f0086b79f0097b79f0048069000bb
:102b30000c06e9000c8040000048eb00efb2970063
:102b40007fb297008903780081047800d8af9f0096
:102b5000020478008bbf9f008a0578000345780047
:102b60002a0037000c06e9006fab97006f00630086
:102b7000e90f500002003c000003b00001003700e4
:102b80007005b0000a03fb001604b100f90f5300f2
:102b90000c003e00000378000650a0001606b100ad
:102ba000f90f530007003e00b4b79f00a5b79f0080
:102bb000c7b79f00370d0700cfb39700afb297009c
:102bc0003fb2970080747e000804e9008d06e9009a
:102bd0006fa89700ffa897000fb197009fb19700cb
:102be000460020008301d1000281d3008180d30000
:102bf0000080d3000603e900faff3a00e0af9f002f
:102c0000f1af9f0082b79f0093b79f00e10f56007e
:102c10000f0036006fa89700ffa897000fb197002c
:102c20009fb19700e00f5000e08f5800e00f59006f
:102c3000e08f5900cbff3a000800e000c9ff3c00dc
:102c40000d00e000020034000e18a300c5ff3a009a
:102c500089007800f4b79f00870478005fac970084
:102c60008a4178000b0578008fbd97000500e000d1
:102c7000100032003b02be002b03be00e4af9f00f9
:102c8000f5af9f0086b79f0097b79f00e00f5200f7
:102c9000e08f5a00e00f5b00e08f5b000500320020
:102ca0000c06e90083707e000c06e90000c3b30047
:102cb00080707e00ffb297000500e0000300320044
:102cc0000c06e90000c2b30080707e00480190004d
:102cd0000201e9000c0151008c8040000e027800d6
:102ce0008a017800090078002f0007009900900001
:102cf0000188a3000400320098009000810f50006a
:102d000001003d00010078004f0778004f06be002b
:102d10004f05be004f04be00af01b1000000060029
:102d20000200fa00881f780000047800e2bf9f00cc
:102d30006481570008007800ce01070098009000d9
:102d40000148a300010032000080eb004f0478002e
:102d50000080fa0000000600889fbe008a1f7800ed
:102d6000800478004900900002047800800f54002d
:102d70000100360000047800080178006a854400ec
:102d80001a00780092f707001a004400000d78003e
:102d9000e8844400990c14000048eb004f057800cb
:102da0004f04be0000000600f2874700889fbe0067
:102db0008a9fbe008c9fbe008e1f78008004780022
:102dc000010578000204780083057800610762003d
:102dd00002003a008b0f5400080039000801780007
:102de0008a00780009007800c6f907008b0f5400ac
:102df00002003900880578001e003700088655005b
:102e00000c017800f00f560001003600020120008e
:102e1000010220007e80570074f707008c067800be
:102e20000500370002012000fe80570009007800ed
:102e3000b4f90700f0865600ef8f5600f9ff3e0008
:102e40004461de0000ff2f000091b900020146003e
:102e5000fe80570009007800aaf907000e00e00084
:102e600004003a00080178008a0078000900780020
:102e7000a4f907000b0078004f0778004f06be004a
:102e80004f05be004f04be002f01b1000000060038
:102e900000000500000005000000050000017800aa
:102ea0000040eb008080fb0081804000c3fb2000dd
:102eb00063c278000404e00003003a00d0fb200065
:102ec00060c078000000060092017800934f520025
:102ed00004003a00d0fb200060c078000309e8003d
:102ee000010037000040e800ea4f5000edff3600d7
:102ef00000000600f6874700889fbe008a9fbe003c
:102f00008c9fbe008e1f780080047800010478003a
:102f100083057800040678000000eb00c0b79f002e
:102f20008080eb00d1b79f00e0b79f00f2b79f0011
:102f30000008200080bf9f00980078000100780002
:102f40000005eb00010037000a05e8003041780079
:102f50000204e0000300320053c2b300834f51006b
:102f6000f9ff3a000a00e000040032000a0178008c
:102f70000900780063f90700180c4500180778006d
:102f800050c2b3009e4f100033013a000e07e80014
:102f90000e0c780010003700cfb097000100a000a1
:102fa0000b003700cfb097000110a00008003700d9
:102fb000cfb097000120a00005003700cfb09700e8
:102fc0000130a00002003700cfb097000140a00000
:102fd000c1b79f00000ce80018007800904078000e
:102fe000b2c2b30082cf5000f1ff320007003c00b4
:102ff00002c2b30082cf5000f0ff320032c2b300f1
:1030000082cf500007003a00efff3700d2c2b30072
:1030100082cf5000e0ff320002c3b30082cf5000e5
:10302000e0ff3200a2c2b30082cf50000d003a0090
:10303000000ce8001c80e900000e78001000780009
:10304000e0b79f000000e0000f003d00cfb0970008
:103050000100a200c1b79f000000ea00e0b79f0096
:1030600009003700c00b0700e0b79f0001003700e0
:10307000000ce800180078009000fb000103b1008c
:10308000e98f5000faff36004fb097000008a30008
:10309000020032000010a100c0b79f0018007800a5
:1030a000e1c2b30090cf100016003a008000eb00a0
:1030b000d1b79f000000e800000c7800a1c2b30067
:1030c00090cf100006003a00000ce8001c80e900d8
:1030d000000e780010007800d0b79f00090037007c
:1030e000a10b0700d0b79f0001003700000ce800db
:1030f000180078009000fb000103b100e98f500038
:10310000faff36000800780064ff07008046780068
:10311000180078001000fb00d70b07009106200074
:10312000810f50003800320012003c0041062000a0
:10313000810f5000340032000a003c0011062000cc
:10314000810f50002000320031062000810f500016
:103150009a00320051022000810f5000ae003a0068
:10316000a700370071062000810f5000aa003c0024
:103170008200370001072000810f50005c00320000
:1031800007003c00e1062000810f5000740032006f
:10319000f1062000810f50009f003a0039003700ef
:1031a00051072000810f50002700320081072000c6
:1031b000810f50004200320031072000810f500083
:1031c00095003a00850037008d80fb000c017800e7
:1031d00000fe2f000f004000b50b07000000e000cc
:1031e0009c00320018007800000ce8009041780044
:1031f00002fe2f000f014100f880570009007800ff
:1032000024ff07000e0037008d80fb008c01780042
:103210001200200000fe2f000f004000c30b07002b
:103220000000e0008b003200180ce80002fe2f00c6
:103230000f014100f8805700090078003dfa0700af
:1032400000054500840037008d80fb008c0178006c
:103250000001eb0000fe2f000f004000b30b070041
:103260000000e0007b003200180ce80002fe2f0096
:103270000f014100f880570009007800dafd0700cf
:10328000efff37008d80fb008c0178000001eb0020
:1032900000fe2f000f004000a40b07000000e0001c
:1032a0006c003200180ce80002fe2f000f014100f4
:1032b000f8805700090078001afd0700e0ff37008a
:1032c0008d80fb008c0178000001eb0000fe2f00d8
:1032d0000f004000950b07000000e0005d00320089
:1032e00018007800000ce8009041780016003700c4
:1032f0008c0178000001eb00010f200000fe2f0080
:103300000f004000890b07000000e0005100320070
:10331000180ce8000fb097009fb097002fb19700ee
:10332000bfb19700e00f5000e08f5800e00f590048
:10333000e08f590003003a008001eb0062fb20009f
:103340004000370083c7b30002fe2f000f01410089
:10335000f880570009007800ccfd0700b8ff37005f
:103360000b0145008d80fb008c01780000fe2f00d2
:103370000f004000c60b0700360037008d80fb00b1
:103380000c01780000fe2f000f004000480b0700e2
:103390000000e0002f00320018007800000ce80068
:1033a0009041780002fe2f000f014100f880570085
:1033b0000900780039fa0700a1ff370000c8b30000
:1033c00080cf560023003a00180ce8001c80e9006a
:1033d000000e7800104078000d00370000c8b300e0
:1033e00080cf56001b003a00180ce8001c80e90052
:1033f000000e78008001eb0010017800110037000a
:1034000001c8b30081cf560012003a00180ce80042
:10341000e0df9f000800370050c2b300e0df9f00ec
:103420000e0c78000000eb00c0b79f00e0b79f00d3
:103430008080eb00d1b79f0013002000e2fd2f0039
:103440000f014100f880570009007800eafc0700ee
:103450007bff3700180ce8000a0078004f0778005f
:103460004f06be004f05be004f04be006f01b10005
:10347000000006008200fa00889fbe008a1f7800c4
:103480000005780082047800c13f9f000004eb0033
:10349000100037000902780088017800a2f72f0099
:1034a0000f01410081f72f008f8040000a00780053
:1034b00090fe070008004000880f500004003d0007
:1034c000b0042000808088000084eb0004003700f6
:1034d000000478004f3897001004e000edff3a0038
:1034e000080078004f0578004f04be000080fa0005
:1034f000000006000000fa00cfb89700688157006e
:10350000f07880001000780005fe07000080fa00c7
:103510000000060087f9070082fc0700b6fc0700e0
:1035200031fd070059fd37000000fa00cfb89700c1
:1035300068815700f078800010007800f8fd0700df
:103540000080fa00000006007af9070075fc070009
:1035500025fd07004dfd0700a7fc37000000fa001d
:10356000cfb8970068815700070007000080fa0075
:10357000000006006ff907006afc07009efc0700c8
:1035800019fd070041fd3700820178000101780034
:10359000f1ff270000003700f28747008e1f7800f8
:1035a00002027800030178000000e000020032000f
:1035b0000007780001003700728757008002eb0097
:1035c0000100e000010032008102e9007080570034
:1035d000060009000018eb007280570000a8eb00fd
:1035e0002310200093bf9f00aebf9f00b1bf9f007c
:1035f000c5bf9f000100e00004003d00b0042000b2
:10360000808088000080eb0005003700004feb0051
:10361000eebf9f00debf9f0084007800c0fd070062
:103620004f0778002f01b100000006000000fa00eb
:10363000cfb8970068815700d3ff07000080fa00d9
:10364000000006003bf9070036fc0700e6fc070017
:103650000efd070068fc37000000fa00cfb89700a5
:1036600068815700c8ff07000080fa0000000600cc
:1036700061fc37008000eb002f0037003c00fa00af
:10368000889fbe008a9fbe000004be00020578002d
:103690000f0078004004b1001d0009000018eb0085
:1036a00088a79f00d8af9f008085eb00ebaf9f00fd
:1036b0006022b8006033b800c0fb2f000f0040004c
:1036c0001b090700120020008a007800c0fb2f00b1
:1036d0000f004000000807006fb29700ffb297008c
:1036e0000fbb97009fbb9700dfad97000fa597001a
:1036f0000900e000090032000a855500cfd5de0040
:103700000402450085824d0006834d0087834d00ed
:103710000100320004044400880c78004f05be000c
:103720004f04be000080fa00000006000001eb001c
:10373000d2ff0700ba0b370012002000cfff0700ae
:10374000b70b370022002000ccff37008000780044
:103750001000200002022000828f5000040032007e
:10376000e9805000e48f5000010036000000eb00bb
:10377000000006000800fa00889fbe008a9fbe0075
:103780000004780081057800fe00440011007800f4
:1037900038119000820f500003003100b084fb000c
:1037a000800878000300370008007800050907004a
:1037b00080047800b0022000808f540004003200a2
:1037c0000005eb00d0022000808f54001b003a005f
:1037d000d982b20009f0a7008904ea008904e9004f
:1037e0004f4dde00fe0044001100780038119000bb
:1037f000820f500003003100b084fb008008780085
:103800000300370008007800ee0807008004780005
:1038100000fd2f0009004000e90f500007003600ae
:103820000b00e00005003200381090000000e000be
:10383000020032007e0044001008e90000fd2f0065
:10384000090040008005eb00e90f5000130036002e
:10385000381090000000e000740032007e04440044
:10386000180ce900710037006a59b9008205400060
:10387000fe0044001100780038119000820f5000c3
:1038800003003100b084fb0080087800030037009b
:1038900008007800cb0807008004780000fd2f00a6
:1038a00009004000e90f500003003e00b1cc2000a9
:1038b000818f5500ecff3400615ab900612bb900cb
:1038c00084bf9f0095bf9f00a6bf9f00b7bf9f000a
:1038d00020003700a4002000050020006033b8005d
:1038e0000fb897009fb897002fb99700bfb99700fe
:1038f00001110700cfcdde000082440081824d001f
:1039000002834d0083834d000403b1000580b100a4
:103910000680b1000780b10084bf9f0095bf9f0063
:10392000a6bf9f00b7bf9f00fe00440011007800b3
:1039300038119000820f500003003100b084fb006a
:103940008008780003003700080078009d08070011
:103950008004780000fd2f0009004000e90f5000ae
:1039600018003e00d07a240011ae270042e12a0060
:10397000731420000fba97009fba97002fbb9700cf
:10398000bfbb97000020e10001a8e10002b0e10008
:1039900003b8e100cfff34000a0037007e01440085
:1039a00012007800910f500003003100b084fb003a
:1039b000000978000300370008007800810807003c
:1039c000800478000903b100610220008880400073
:1039d000e98f5400f1ff36001100e00002003200d0
:1039e0007e044400180ce9000a00e00016003200d2
:1039f0006000b8006011b8000fba97009fba970036
:103a00002fbb9700bfbb970004025000858258006f
:103a1000060359008783590084bf9f0095bf9f000c
:103a2000a6bf9f00b7bf9f00070037006000b80027
:103a3000020020000300280080bf9f0091bf9f006c
:103a4000a2bf9f00b3bf9f000fb897009fb8970019
:103a50002fb99700bfb997004f05be004f04be00b5
:103a60000080fa00000006000f04b000889fbe002e
:103a70008a9fbe008c9fbe008e1f780000067800d3
:103a8000b1a79f00c29f9f00a3a79f00b49f9f0064
:103a90007e014600920078003c109000808f50001c
:103aa000040031003180fb00010978000007eb00c1
:103ab0000e0037000c00780042080700fbff3700bb
:103ac0007e014600920078003c109000808f5000ec
:103ad000030031003180fb0001097800020037004b
:103ae0000c007800370807001e00200001032000aa
:103af000810f5000f2ff32006022b8006033b8003e
:103b000094af9f00a5af9f00b6af9f00c7af9f00c7
:103b10008002eb0095a79f00e1022000810f50007a
:103b200025003a007e014600920078003c1090008b
:103b3000808f5000050031003180fb0001097800c2
:103b40006044b8006055b800120037000c007800df
:103b50001c080700faff37007e014600920078003b
:103b60003c109000808f5000030031003180fb003a
:103b700001097800020037000c00780011080700e6
:103b800061045400e0845c0060055d00e0855d0038
:103b90001e00200001032000810f5000eeff3200c4
:103ba00098af9f00a9af9f00baaf9f00cbaf9f0017
:103bb0001500200095a79f006022b8006033b80070
:103bc000d4af9f00e5af9f00f6af9f0087b79f007f
:103bd0008002eb00a59f9f006022b8000600200035
:103be00007ff2300d49f9f00e59f9f00f69f9f0043
:103bf00087a79f006044b8006055b8006033b800e4
:103c0000f6a79f0087af9f0085003700e1022000e4
:103c1000810f50000e003a009fa397000700e000bc
:103c20008c003a005fa89700efa897007fa9970043
:103c30008fb1970090af9f00a1af9f00b2af9f00e0
:103c4000c3af9f001100200091a79f006a003700ba
:103c500091032000810f5000030034000050a000a9
:103c60009dfa2f0080864600700020000100200091
:103c70006011b8005faa9700efaa97007fab97008a
:103c80008fb397000020e10001a8e10002b0e1003d
:103c900003b8e1000c003c007fa397008fab9700b6
:103ca0004438dd00cc30de00810070004430dd009f
:103cb0004feade000081460081014a00f2a79f0022
:103cc00083af9f003f003700d0002000010020009c
:103cd0006011b8005faa9700efaa97007fab97002a
:103ce0008fb397000020e10001a8e10002b0e100dd
:103cf00003b8e1001d003c006022b800060020006f
:103d000007fb23005f989700ef9897007f99970033
:103d10008fa19700730b07000002be000203be00d4
:103d2000d49f9f00e59f9f00f69f9f0087a79f005d
:103d30006168b9001d0a07005f9a9700ef9a970023
:103d40007f9b97008fa39700660b07000002be00c1
:103d50000203be000800be000a01be00670a070099
:103d60000004be000205be00160037000d00e00092
:103d700014003200af9a97000500e00011003a00ed
:103d80006022b8000600200007fe23005f9897001d
:103d9000ef9897007f9997008fa19700510b07002c
:103da0000002be000203be000800be000a01be0001
:103db000520a07000004be000205be0016002000e3
:103dc000a69f9f005fa89700efa897007fa9970084
:103dd0008fb1970061004000e08048006001490019
:103de000e0814900d0af9f00e1af9f00f2af9f009c
:103df00083b79f001e0020007e01460092007800dd
:103e00003c109000808f5000030031003180fb0097
:103e100001097800020037000c00780069070700ec
:103e20000dfd2f0080864600e98f560077ff360093
:103e3000800078000150a0001106b100e58f50000d
:103e400072ff3600e1022000810f500072ff320045
:103e500001003700e00220000e00e0001b003a00e5
:103e60003c1090000000e00002003200fe0046001e
:103e70009108e900bf9897000100e0000c003200b3
:103e80000000e00002003200fe0046009108e90058
:103e90001fa197000200e000090032000000e000ce
:103ea000070032007e0646001c0ee90004003700c1
:103eb0006022b8006033b8000c0078001c070700cf
:103ec000afa197006118b900500037001fa29700fa
:103ed0000400e00016003a005faa9700efaa9700de
:103ee0007fab97008fb3970094af9f00a5af9f0063
:103ef000b6af9f00c7af9f00110037007fa19700aa
:103f00008fa997004418dd00cc10de0081007000fe
:103f10004410dd00f0a79f0081af9f0061024200c6
:103f2000e0824a0060034b00e0834b00050037004d
:103f30005faa9700efaa97007fab97008fb3970017
:103f40008006780070002000010020006011b80099
:103f50000020e10001a8e10002b0e10003b8e100a7
:103f6000e6ff34000d0078000050a000010720009b
:103f7000810f500015003a00bf9897000c007800a0
:103f8000fcfd07006022b8000600200007002800a2
:103f90000400e1000588e1000690e1000798e100d7
:103fa00013003a00bf9997000300e00007003a00b1
:103fb0006022b8006033b8000c007800dc0607000f
:103fc0006000b8006011b8003b0137003c1290005f
:103fd0006000b8006011b8000400e0000400320086
:103fe0007e0646001c0ee9006000b8006011b800b3
:103ff0007fa297008faa9700e00f5200e08f5a002f
:1040000007003a00afa297006128b9006a090700cb
:104010006011b800d40b070019090700260137000a
:104020001faa9700afaa97003fab9700cfab9700ae
:1040300068025200e0825a0060035b00e0835b008c
:104040002c0020000402d0008582d2000683d2001a
:104050008783d2000c06e900faff3a000402400010
:10406000858248000603490087834900d4af9f003a
:10407000e5af9f00f6af9f0087b79f00cf9a9700ec
:104080000500ea00cf80de006109b9005faa970051
:10409000efaa97007fab97008fb397000020e10055
:1040a00001a8e10002b0e10003b8e1000f00340014
:1040b0002002200080808800afa297006128b9000c
:1040c0003a090700f4ff2f00f5ff2f00f6ff2f003d
:1040d000f7fe2700830a0700f4ff2f00f5ff2f00eb
:1040e000f6ff2f00f7fe27001a0037004f9b9700be
:1040f00067f92f0007004300cf80de006109b90097
:104100005faa9700efaa97007fab97008fb3970045
:104110000020e10001a8e10002b0e10003b8e100e5
:1041200039003d002002200080808800afa2970067
:104130006128b9001d0907006022b80006002000b0
:1041400007012000670a07006022b800060020006f
:1041500007012000630a0700d70037006022b8007b
:104160000600200007fe23000800be000a01be0072
:10417000aa0807000c0646008d864e000000e000ed
:104180000d00350061064600e0864e006022b80052
:104190000600200007ff23000800be000a01be0041
:1041a000500907000002be000203be000800be0066
:1041b0000a01be00040037000802be000a03be0068
:1041c0000800be000a01be004c0907000004be0042
:1041d0000205be005fa89700efa897007fa997008f
:1041e0008fb1970061005000e080580060015900d5
:1041f000e0815900d0af9f00e1af9f00f2af9f0078
:1042000083b79f00020037007fa697008fae97000c
:10421000e00f5600e08f5e00d0ff3d00fca79f003e
:104220008daf9f003fa29700cfa2de00612bb900a7
:1042300094af9f00a5af9f00b6af9f00c7af9f0090
:1042400000022000010020006011b800cf9a970002
:104250004faede00050250008c8258000c0359005e
:104260008c835900d49f9f00e59f9f00f69f9f007d
:1042700087a79f005fa89700efa897007fa99700e6
:104280008fb197000000420081804a0002014b007c
:1042900083814b00d0b79f00e1b79f00f2b79f002a
:1042a00083bf9f001faa9700afaa97003fab97005c
:1042b000cfab97000020e10001a8e10002b0e100cf
:1042c00003b8e10006003400dfaa97004f9b970077
:1042d000068052000002b000b0a79f000b00330020
:1042e0006000b8006011b80090af9f00a1af9f00c0
:1042f000b2af9f00c3af9f0040032000bfa0970054
:10430000808f500038003c00020037000001eb00b5
:10431000b2a79f0042052000bfa1970003015100f2
:104320000000200001f82300f61007000006be0080
:104330002fa297006120b9009c0807000002be0070
:104340000203be000c00be0094b79f00a5b79f00fb
:10435000b2b79f00c7b79f00490807001fb2970078
:10436000afb297003fb39700cfb39700ad0e0700f1
:104370000002be000203be0094af9f00a5af9f00e5
:10438000b6af9f00c7af9f00bfa29700ff8f52003c
:1043900015003c006022b8006033b8000800be0081
:1043a0000a01be00310807000000e0000e003200e4
:1043b0006000b8007fa3970061006300e00f500029
:1043c000e08f580008003a007fa697008fae970054
:1043d00061064600e0864e00fca79f008daf9f005f
:1043e0006044b8006055b800afa697006168b90096
:1043f0006e0807000002be000203be00b4a79f00c3
:10440000c5a79f00d6a79f00e7a79f000802be0090
:104410000a03be00b30907000004be000205be0087
:104420007fa097008fa89700660807000002be00d3
:104430000203be003fa09700cfa097005fa19700a6
:10444000efa19700a70907000002be000203be000b
:104450001fa89700afa897003fa99700cfa9970082
:10446000a60807000802be000a03be00a308070052
:104470001faa9700afaa97003fab9700cfab97005a
:10448000980807000004be000205be006022b800c4
:104490006033b800f50707000000e00002003a00b2
:1044a00020022000808088005faa97000800be00dc
:1044b0000a01be00bd1007004f0778004f06be007e
:1044c0004f05be004f04be000f04b10000000600ff
:1044d000cf23b000889fbe008a9fbe008c9fbe0085
:1044e0008e1f78000004780001007800b2a79f00ba
:1044f000e39f9f0094af9f00850578008006eb0046
:104500000b0037007e0144009200780038109000c4
:10451000808f5000030031003180fb0001097800da
:104520000200370008007800a60507001d002000e3
:1045300001032000810f5000f2ff32000006eb0063
:104540006022b8006033b80094b79f00a5b79f0001
:10455000b6b79f00c7b79f00e1022000810f50004f
:104560002c003a007e014400920078003810900040
:10457000808f5000090031003180fb000109780074
:104580006022b8006033b80094b79f00a5b79f00c1
:10459000b6b79f00c7b79f001a0037000800780021
:1045a00088050700f6ff37001fb09700afb09700ef
:1045b0003fb19700cfb1970061005000e0805800f4
:1045c00060015900e081590090b79f00a1b79f009a
:1045d000b2b79f00c3b79f007e01440092007800ed
:1045e00038109000808f5000030031003180fb00b4
:1045f0000109780002003700080078007105070003
:104600001d00200001032000810f5000e6ff320052
:104610001c0020006011b800c29f9d00d39f9d0028
:104620008004eb006022b8006033b800d4af9f0074
:10463000e5af9f00f6af9f0087b79f00090778009e
:104640000905780053003700810f50000c003a0034
:104650000c00e00059003a005fa89700efa897000f
:104660007fa997008fb1970090b79f00a1b79f00d7
:10467000b2b79f00c3b79f001c0020003b0037006b
:10468000010320005faa9700efaa97007fab970075
:104690008fb3970061024200e0824a0060034b0042
:1046a000e0834b00d4af9f00e5af9f00f6af9f00c3
:1046b00087b79f00c3072000830f570023003c00eb
:1046c000810f500001003200dfac9700c276dd00a0
:1046d0000a00e0001100320085db2f008f824200cb
:1046e0008d8642006102b9000403b1000580b1006b
:1046f000a2002000030020001d00be00d4b79f00d0
:10470000e5b79f00f10707005fb29700efb297008f
:10471000801e420081964a000500370086db2f008c
:104720000f0343008d064300cf91de00828ebe0052
:104730000a05e8001d002000e90f55000b003a00b3
:104740000d0747000005eb0008003700810f5000ff
:10475000060032004f909700df9097000000a00005
:10476000c0979f00d1979f00c94520007e0144005b
:104770009200780038109000808f500003003100c4
:104780003180fb0001097800020037000800780042
:104790000c05070002fd2f0000014100e10220008e
:1047a000e90f5100a8ff3600810f5000a8ff32002a
:1047b0000c00e000030032000a003700e002200095
:1047c000080037005faa9700efaa97007fab970019
:1047d0008fb3970094b79f00a5b79f00b6b79f000f
:1047e000c7b79f000d00e0002800320000017800ec
:1047f0000250a00051062000810f510023003a0012
:104800008b00780008007800dafb07006022b8000f
:1048100006002000070028000400e1000588e100f0
:104820000690e1000798e1000b003a000b00e00061
:1048300021003200381290006000b8006011b8000a
:104840000400e000040032007e044400180ce9007b
:104850006000b8006011b8001fb29700afb29700b7
:104860003fb39700cfb397000002420081824a0015
:1048700002034b0083834b0094b79f00a5b79f00b2
:10488000b6b79f00c7b79f00120037000000e000d6
:1048900005003500381090000000e00002003200f2
:1048a0007e0044001008e9000d00e00009003a0015
:1048b00060012000808088006022b8006033b8006a
:1048c000080078009a0407006000b8006011b80082
:1048d000780337004f9e9500df9e9500e00f56004d
:1048e000e08f5e0007003a009faa97006128b90098
:1048f000310707006011b8009b090700e0060700b8
:104900006c0337001fb09700afb097003fb197001e
:10491000cfb197005faa9700efaa97007fab9700ef
:104920008fb397000400e1000588e1000690e100e4
:104930000798e10020003a009000200001002000cc
:104940006011b8001fb29700afb297003fb3970055
:10495000cfb397000020e10001a8e10002b0e10020
:1049600003b8e10014003c00bfa29700fe8f520084
:104970000a003c000c00be00050378000603e900b5
:10498000030033008100d1000080d300fbff37001b
:10499000e00f5000e08f580007003a009fab9700ef
:1049a0006138b900010707000004be000205be001f
:1049b0000c00be0060003700220020006f9e9700b0
:1049c000110009000206d8000000ea00cf80de00d6
:1049d0006109b9001fb29700afb297003fb39700cb
:1049e000cfb397000020e10001a8e10002b0e10090
:1049f00003b8e1000f00340020022000808088000e
:104a00009faa97006128b900e8060700f4ff2f006d
:104a1000f5ff2f00f6ff2f00f7fe270031080700f3
:104a2000f4ff2f00f5ff2f00f6ff2f00f7fe270001
:104a30008e0037006f9b970067f92f000700430037
:104a4000cf80de006109b9001fb29700afb29700b6
:104a50003fb39700cfb397000020e10001a8e10029
:104a600002b0e10003b8e1000d003d00200220008b
:104a7000808088009faa97006128b900cb060700b4
:104a80006022b8000600200007012000150807007a
:104a90006022b800060020000701200073003700e4
:104aa0000a00e0000e0032000a0037004274dd0008
:104ab00086db2f000f03430008044300a200200000
:104ac000030020001800be0000070700008cbe0095
:104ad0000a05e800e80f5500f4ff34000e07e8006f
:104ae0009fb39700e88f540002003c00878f54006a
:104af000050034004270dd008cdb2f000f064600fd
:104b0000000046005c0037009fb69700f18f56000a
:104b1000f8ff3c00e98f560009003a001fa99700f2
:104b20006110b900a10607000004be000205be0026
:104b30004f989500df989500a206070047003700c0
:104b40009fb19700e88f51001c003c001faa9700fe
:104b50006120b900950607000004be000205be00f2
:104b60004f989500df989500960607000002be005a
:104b70000203be000800be000a01be00d9070700fc
:104b80000004be000205be009fb2970068801200bc
:104b90004200dd00e1f62000008040001000be0071
:104ba000820607000002be000203be000800be002d
:104bb0000a01be001c070700be0237003fa3970092
:104bc0007b004300d2ff2f009fb3970002b9b900ca
:104bd00002014000fe0f51000a003c004f98950072
:104be000df9895000201e900030033008100d10045
:104bf0000080d300fbff3700e00f5000e08f58002b
:104c0000bcff3a001fae97006160b900670607005d
:104c10000004be000205be004f989500df98950085
:104c2000680607000002be000203be000800be00c6
:104c30000a01be00ab0707000004be000205be006b
:104c40009fb697006a8056004200dd00e1f6200022
:104c5000008040001000be00540607000002be00a5
:104c60000203be000800be000a01be009d07070047
:104c7000900237000e07e9004001be00e00f51002e
:104c8000e08f5900fbff3200940020009fb0970096
:104c9000110009008400d800010278000001eb0037
:104ca000d2af9f000400e000520032009fb1970095
:104cb0000300e00001003d006902420068001200ac
:104cc0004200dd00e1f62000008040001005be003b
:104cd00046db2f000f0343006044b8008002eb0066
:104ce000d5af9f00c4a79f000800be0085047800d0
:104cf000060478000002be002d0037005806be00f2
:104d00000a01be000c00be00d4b79f00e5b79f00ab
:104d10009fef07005fb29700efb2970004034000d7
:104d200085834800068cbe000a01be0000a02c004e
:104d3000a1b92300f6b79f0087bf9f00bc050700fd
:104d40000002be000a01be000c00be00d4b79f00e6
:104d5000e5b79f008bef07000001be005fb2970030
:104d6000efb297000400be00580607000002be0024
:104d70000900e8007fb397008fbb97005fae9700f4
:104d80008c8f540009003a00e00f5300e08f5b0065
:104d900006003a0080067800fd07b200ddaf9f00f4
:104da0009fb09700e980500091b79f008004780081
:104db0008e8f5400d1ff3a000404be004fa297002a
:104dc000e00f5400e08f5c00060032004270dd000e
:104dd00082db2f000f014100000041000888be0067
:104de0000e07e800690212009fb19700848141001c
:104df00093b79f000002eb00c4a79f00dfae9700af
:104e00006c003700cfa29700fd825200c5a79f001b
:104e10000e06e900fc07b2006033b800d6af9f0071
:104e2000e7af9f004260dd0087db2f008f834300e8
:104e300080834300d7a79f001704be006055b800c9
:104e4000cd55dd004348de008b0570004d4ddd0083
:104e50004340de000a057000cd44dd000004eb0095
:104e60005fa99700efa997000804410089844900d1
:104e700060054d00e0854d0004a02c00a5b923007d
:104e80006033b8000440e10005c8e10006d0e1004d
:104e900007d8e1000e0036000800be000a01be007f
:104ea0002c0b0700d0af9f00e1af9f0004a02c00a7
:104eb000a5b923006033b8000800be000a01be0097
:104ec0002b0b0700dfa39700808bbe000500370087
:104ed0005fa097000888be006011b800d2af9f00a5
:104ee000e3af9f000e00e900f007b200800f56000c
:104ef0000b003a008d0f56000e0032004260dd00bc
:104f000083db2f008f814100008041001000be0034
:104f1000e00f5000e08f5800ed0132000200370032
:104f20008d0f5600030032000c06e900fc07b200aa
:104f3000bcff37005faa9700efaa9700e00f52006e
:104f4000e08f5a001b0032009fb29700e9824200b6
:104f500095b79f008d06e900fd07b2008e8f5600c1
:104f60000d003a000d07e900fe07b2000e00e9004f
:104f7000f007b2004200dd0086db2f000f03430084
:104f800000004300c270dd00810043001001be003c
:104f900031187100219071004268dd0083db2f0021
:104fa0008f814100008041005faa9700efaa97001f
:104fb0000488be009fb29700f18f520091ff340029
:104fc000f28f520009003a004269dd0086db2f00b3
:104fd0000f03430002014300e00527009108200071
:104fe000b20f1000a28f180086ff36008d037800e4
:104ff000a2f820000000eb0087004000f107b2009b
:105000008e8f50000d003200c208dd0083db2f00c0
:105010008f814100818041001104be005202be0018
:10502000840f5400858f5c00040039000d003e00a1
:105030000000e800e20f5000efff3a001fb29700b7
:10504000f20f520007003a00d7af9f006044b8004b
:105050006055b8008006eb000800be000a01be00e3
:1050600067003700990020009fb29700fb8f520025
:1050700001003c00190020004fa3970009034300e2
:10508000c6a79f00100020000900dd000000e90015
:105090006101b900d2a79f00e3a79f000aa02c00de
:1050a000abb92300890178008301e90003003300d4
:1050b0008b85d1000a85d300fbff370007047800f9
:1050c0006000b800d0af9f00e1af9f000a02be00b1
:1050d0001fb59700870578002d003700c240dd001e
:1050e00086db2f000f034300810043001101be0047
:1050f0000203be00090678000c06e9000300330035
:105100008703d1000683d300fbff37005fae970013
:10511000efae97000603460087834e008688be00e8
:105120006fa0970083066000dfa0970002866000f2
:105130000401be000c00be00d4b79f00e5b79f007d
:10514000f6b79f0087bf9f0060050700d0af9f00a4
:10515000e1af9f000800e8005fb29700efb2970050
:105160007fb397008fbb97008b0f540006003a0067
:10517000e00f5300e08f5b0003003a0080057800e9
:10518000fb07b2006905550000047800f807b2007b
:105190008e0f5400d1ff3a008b0378009ab79f001e
:1051a0005fa89700efa89700e00f5000e08f58002d
:1051b0008fff32000e01e800f207b200870f5100a6
:1051c000070032004277dd0083db2f008f81410032
:1051d0000e874100008fbe000207780084ff370071
:1051e0000e00e900f007b2004200dd0084db2f0072
:1051f0000f024200000042001000a0007cff3700b8
:10520000dfaa970005864600fc07b2008e0f560005
:1052100009003a000e07e800fe07b2000e02e9009e
:105220004222dd0086db2f000f034300040243000f
:10523000000aeb00341278006022b80056d62c0029
:10524000d71c2400270607000004be000205be008c
:105250004266dd0087db2f008f8343000c8643000e
:105260001c00be00d70407000002be000203be00ff
:105270000800be000a01be00200507008d06e800f8
:10528000e28f5600deff3a000004be000205be00b9
:105290001fae97006160b900c40407000002be00a1
:1052a0000203be000800be000a01be000d06070092
:1052b0000002be000203be00d4a79f00e5a79f0026
:1052c000f6a79f0087af9f00cfa297005503b000bd
:1052d000c59f9f006f9b970006835200d69f9f003b
:1052e000bfa39700868f5300060034000600e0003d
:1052f0000b003500060678001d0020009db79f00ba
:10530000030037003fa697000000eb0090b79f0016
:1053100040032000800f560037003c000300370098
:105320001100200091b79f000006eb0092062000bc
:105330000c0151000000200001f82300f10c0700cf
:105340004f0407005fa29700efa297007fa397008a
:105350008fab9700b30a07000002be000203be0035
:10536000f49f9f0085a79f0096a79f00a7a79f0077
:10537000520320000c0151000000200001f823001e
:10538000e00c07003e0407000002be000203be005e
:105390005fa09700efa097007fa197008fa99700cb
:1053a000420b07000004be000205be000002be0062
:1053b0000203be005fa09700efa097007fa19700b7
:1053c0008fa99700c70407007f9a97008fa29700c4
:1053d0001fa39700afa39700c80407000002be00f8
:1053e0000203be00d4a79f00e5a79f00f6a79f0079
:1053f00087af9f00080037006000b8006011b80058
:10540000f09f9f0081a79f0092a79f00a3a79f00e6
:105410000004be000205be00dfa897000180e8007e
:10542000f007b2008e0f50004e0032004200dd0047
:1054300082db2f000f014100000041001001be007f
:10544000f04f2600d1dc2100800f5100818f5900e0
:105450000e003e00e00f5100e08f590005003a00b9
:10546000dfa9970063804100f007b2008e0f500063
:10547000250032001faa97006120b9004e040700e2
:105480000200200003e82300160037000050260029
:10549000d1dc2100800f5100818f590003003200c0
:1054a0009faa97006128b9000b0037005fab9700f7
:1054b00063014300f207b2009fab97006138b90067
:1054c0008e0f510004003a003b0407000200200048
:1054d00003f0230003003700370407000200200018
:1054e00003f42300a0060700e50307000002be0046
:1054f0000203be000800be000a01be007f040700d0
:105500000004be000205be00500320000c00500045
:10551000e10f5000130034006022b80006002000a4
:1055200007ff23000800be000a01be00df0a0700d3
:105530006022b8006033b800cc0307000000e00030
:1055400008003a006022b8000600200007ff230090
:105550000800be000a01be00680407000004be0087
:105560000205be003fa09700e3061000ef989700e9
:10557000818656000802be000a03be005fa09700a5
:10558000efa097007fa197008fa997005b04070009
:105590007f9a97008fa297001fa39700afa3970051
:1055a000500407000002be000203be0094af9f003b
:1055b000a5af9f00b6af9f00c7af9f0064805600a5
:1055c000cf98970001f0a100810f500033003c00fc
:1055d0000400be002d0a07006022b800060020006b
:1055e000073424008d0307000000e0001b00350095
:1055f0009fb297000500e000070032005f9b970014
:1056000006066e000cf0a7000c06ea000c06ea0085
:105610004f66de009cb79f006022b80006002000a5
:1056200007fe23001fa89700afa897003fa9970087
:10563000cfa997002b0507000002be000203be00a1
:1056400094af9f00a5af9f00b6af9f00c7af9f006c
:10565000cfa297008502e800c5a79f004fa0970042
